{"abi":[{"type":"constructor","inputs":[{"name":"vaultFactory","type":"address","internalType":"address"},{"name":"networkMiddlewareService","type":"address","internalType":"address"}],"stateMutability":"nonpayable"},{"type":"function","name":"ADMIN_FEE_BASE","inputs":[],"outputs":[{"name":"","type":"uint256","internalType":"uint256"}],"stateMutability":"view"},{"type":"function","name":"ADMIN_FEE_CLAIM_ROLE","inputs":[],"outputs":[{"name":"","type":"bytes32","internalType":"bytes32"}],"stateMutability":"view"},{"type":"function","name":"ADMIN_FEE_SET_ROLE","inputs":[],"outputs":[{"name":"","type":"bytes32","internalType":"bytes32"}],"stateMutability":"view"},{"type":"function","name":"DEFAULT_ADMIN_ROLE","inputs":[],"outputs":[{"name":"","type":"bytes32","internalType":"bytes32"}],"stateMutability":"view"},{"type":"function","name":"NETWORK_MIDDLEWARE_SERVICE","inputs":[],"outputs":[{"name":"","type":"address","internalType":"address"}],"stateMutability":"view"},{"type":"function","name":"VAULT","inputs":[],"outputs":[{"name":"","type":"address","internalType":"address"}],"stateMutability":"view"},{"type":"function","name":"VAULT_FACTORY","inputs":[],"outputs":[{"name":"","type":"address","internalType":"address"}],"stateMutability":"view"},{"type":"function","name":"adminFee","inputs":[],"outputs":[{"name":"","type":"uint256","internalType":"uint256"}],"stateMutability":"view"},{"type":"function","name":"claimAdminFee","inputs":[{"name":"recipient","type":"address","internalType":"address"},{"name":"token","type":"address","internalType":"address"}],"outputs":[],"stateMutability":"nonpayable"},{"type":"function","name":"claimRewards","inputs":[{"name":"recipient","type":"address","internalType":"address"},{"name":"token","type":"address","internalType":"address"},{"name":"data","type":"bytes","internalType":"bytes"}],"outputs":[],"stateMutability":"nonpayable"},{"type":"function","name":"claimable","inputs":[{"name":"token","type":"address","internalType":"address"},{"name":"account","type":"address","internalType":"address"},{"name":"data","type":"bytes","internalType":"bytes"}],"outputs":[{"name":"amount","type":"uint256","internalType":"uint256"}],"stateMutability":"view"},{"type":"function","name":"claimableAdminFee","inputs":[{"name":"token","type":"address","internalType":"address"}],"outputs":[{"name":"amount","type":"uint256","internalType":"uint256"}],"stateMutability":"view"},{"type":"function","name":"distributeRewards","inputs":[{"name":"network","type":"address","internalType":"address"},{"name":"token","type":"address","internalType":"address"},{"name":"amount","type":"uint256","internalType":"uint256"},{"name":"data","type":"bytes","internalType":"bytes"}],"outputs":[],"stateMutability":"nonpayable"},{"type":"function","name":"getRoleAdmin","inputs":[{"name":"role","type":"bytes32","internalType":"bytes32"}],"outputs":[{"name":"","type":"bytes32","internalType":"bytes32"}],"stateMutability":"view"},{"type":"function","name":"grantRole","inputs":[{"name":"role","type":"bytes32","internalType":"bytes32"},{"name":"account","type":"address","internalType":"address"}],"outputs":[],"stateMutability":"nonpayable"},{"type":"function","name":"hasRole","inputs":[{"name":"role","type":"bytes32","internalType":"bytes32"},{"name":"account","type":"address","internalType":"address"}],"outputs":[{"name":"","type":"bool","internalType":"bool"}],"stateMutability":"view"},{"type":"function","name":"initialize","inputs":[{"name":"params","type":"tuple","internalType":"struct IDefaultStakerRewards.InitParams","components":[{"name":"vault","type":"address","internalType":"address"},{"name":"adminFee","type":"uint256","internalType":"uint256"},{"name":"defaultAdminRoleHolder","type":"address","internalType":"address"},{"name":"adminFeeClaimRoleHolder","type":"address","internalType":"address"},{"name":"adminFeeSetRoleHolder","type":"address","internalType":"address"}]}],"outputs":[],"stateMutability":"nonpayable"},{"type":"function","name":"lastUnclaimedReward","inputs":[{"name":"account","type":"address","internalType":"address"},{"name":"token","type":"address","internalType":"address"},{"name":"network","type":"address","internalType":"address"}],"outputs":[{"name":"rewardIndex","type":"uint256","internalType":"uint256"}],"stateMutability":"view"},{"type":"function","name":"multicall","inputs":[{"name":"data","type":"bytes[]","internalType":"bytes[]"}],"outputs":[{"name":"results","type":"bytes[]","internalType":"bytes[]"}],"stateMutability":"nonpayable"},{"type":"function","name":"renounceRole","inputs":[{"name":"role","type":"bytes32","internalType":"bytes32"},{"name":"callerConfirmation","type":"address","internalType":"address"}],"outputs":[],"stateMutability":"nonpayable"},{"type":"function","name":"revokeRole","inputs":[{"name":"role","type":"bytes32","internalType":"bytes32"},{"name":"account","type":"address","internalType":"address"}],"outputs":[],"stateMutability":"nonpayable"},{"type":"function","name":"rewards","inputs":[{"name":"token","type":"address","internalType":"address"},{"name":"network","type":"address","internalType":"address"},{"name":"","type":"uint256","internalType":"uint256"}],"outputs":[{"name":"amount","type":"uint256","internalType":"uint256"},{"name":"timestamp","type":"uint48","internalType":"uint48"}],"stateMutability":"view"},{"type":"function","name":"rewardsLength","inputs":[{"name":"token","type":"address","internalType":"address"},{"name":"network","type":"address","internalType":"address"}],"outputs":[{"name":"","type":"uint256","internalType":"uint256"}],"stateMutability":"view"},{"type":"function","name":"setAdminFee","inputs":[{"name":"adminFee_","type":"uint256","internalType":"uint256"}],"outputs":[],"stateMutability":"nonpayable"},{"type":"function","name":"supportsInterface","inputs":[{"name":"interfaceId","type":"bytes4","internalType":"bytes4"}],"outputs":[{"name":"","type":"bool","internalType":"bool"}],"stateMutability":"view"},{"type":"function","name":"version","inputs":[],"outputs":[{"name":"","type":"uint64","internalType":"uint64"}],"stateMutability":"view"},{"type":"event","name":"ClaimAdminFee","inputs":[{"name":"recipient","type":"address","indexed":true,"internalType":"address"},{"name":"amount","type":"uint256","indexed":false,"internalType":"uint256"}],"anonymous":false},{"type":"event","name":"ClaimRewards","inputs":[{"name":"token","type":"address","indexed":true,"internalType":"address"},{"name":"claimer","type":"address","indexed":true,"internalType":"address"},{"name":"amount","type":"uint256","indexed":false,"internalType":"uint256"},{"name":"data","type":"bytes","indexed":false,"internalType":"bytes"}],"anonymous":false},{"type":"event","name":"DistributeRewards","inputs":[{"name":"network","type":"address","indexed":true,"internalType":"address"},{"name":"token","type":"address","indexed":true,"internalType":"address"},{"name":"amount","type":"uint256","indexed":false,"internalType":"uint256"},{"name":"timestamp","type":"uint48","indexed":false,"internalType":"uint48"},{"name":"data","type":"bytes","indexed":false,"internalType":"bytes"}],"anonymous":false},{"type":"event","name":"InitVault","inputs":[{"name":"vault","type":"address","indexed":false,"internalType":"address"}],"anonymous":false},{"type":"event","name":"Initialized","inputs":[{"name":"version","type":"uint64","indexed":false,"internalType":"uint64"}],"anonymous":false},{"type":"event","name":"RoleAdminChanged","inputs":[{"name":"role","type":"bytes32","indexed":true,"internalType":"bytes32"},{"name":"previousAdminRole","type":"bytes32","indexed":true,"internalType":"bytes32"},{"name":"newAdminRole","type":"bytes32","indexed":true,"internalType":"bytes32"}],"anonymous":false},{"type":"event","name":"RoleGranted","inputs":[{"name":"role","type":"bytes32","indexed":true,"internalType":"bytes32"},{"name":"account","type":"address","indexed":true,"internalType":"address"},{"name":"sender","type":"address","indexed":true,"internalType":"address"}],"anonymous":false},{"type":"event","name":"RoleRevoked","inputs":[{"name":"role","type":"bytes32","indexed":true,"internalType":"bytes32"},{"name":"account","type":"address","indexed":true,"internalType":"address"},{"name":"sender","type":"address","indexed":true,"internalType":"address"}],"anonymous":false},{"type":"event","name":"SetAdminFee","inputs":[{"name":"adminFee","type":"uint256","indexed":false,"internalType":"uint256"}],"anonymous":false},{"type":"error","name":"AccessControlBadConfirmation","inputs":[]},{"type":"error","name":"AccessControlUnauthorizedAccount","inputs":[{"name":"account","type":"address","internalType":"address"},{"name":"neededRole","type":"bytes32","internalType":"bytes32"}]},{"type":"error","name":"AddressEmptyCode","inputs":[{"name":"target","type":"address","internalType":"address"}]},{"type":"error","name":"AddressInsufficientBalance","inputs":[{"name":"account","type":"address","internalType":"address"}]},{"type":"error","name":"AlreadySet","inputs":[]},{"type":"error","name":"FailedInnerCall","inputs":[]},{"type":"error","name":"HighAdminFee","inputs":[]},{"type":"error","name":"InsufficientAdminFee","inputs":[]},{"type":"error","name":"InsufficientReward","inputs":[]},{"type":"error","name":"InvalidAdminFee","inputs":[]},{"type":"error","name":"InvalidHintsLength","inputs":[]},{"type":"error","name":"InvalidInitialization","inputs":[]},{"type":"error","name":"InvalidRecipient","inputs":[]},{"type":"error","name":"InvalidRewardTimestamp","inputs":[]},{"type":"error","name":"MathOverflowedMulDiv","inputs":[]},{"type":"error","name":"MissingRoles","inputs":[]},{"type":"error","name":"NoRewardsToClaim","inputs":[]},{"type":"error","name":"NotInitializing","inputs":[]},{"type":"error","name":"NotNetwork","inputs":[]},{"type":"error","name":"NotNetworkMiddleware","inputs":[]},{"type":"error","name":"NotVault","inputs":[]},{"type":"error","name":"ReentrancyGuardReentrantCall","inputs":[]},{"type":"error","name":"SafeCastOverflowedUintDowncast","inputs":[{"name":"bits","type":"uint8","internalType":"uint8"},{"name":"value","type":"uint256","internalType":"uint256"}]},{"type":"error","name":"SafeERC20FailedOperation","inputs":[{"name":"token","type":"address","internalType":"address"}]}],"bytecode":{"object":"0x60c03461011c57612142906001600160401b0390601f38849003908101601f191682019083821183831017610120578083916040968794855283398101031261011c57610057602061005083610134565b9201610134565b917ff0c57e16840df040f15088dc2f81fe391c3923bec73e23a9662efc9c229c6a009081549060ff82871c1661010b5780808316036100c7575b50505060805260a05251611ff990816101498239608051818181610477015261154d015260a051818181610fb901526110eb0152f35b6001600160401b0319909116811790915583519081527fc7f505b2f371ae2175ee4913f4499e1f2633a7b5936321eed1cdaeb6115181d290602090a15f8080610091565b855163f92ee8a960e01b8152600490fd5b5f80fd5b634e487b7160e01b5f52604160045260245ffd5b51906001600160a01b038216820361011c5756fe6080806040526004361015610012575f80fd5b5f3560e01c90816301ffc9a7146115b45750806304fe47481461157c578063103f290714611538578063239723ed14611021578063248a9ca314610fe85780632c9d45b314610fa45780632f2ff15d14610f5b57806336568abe14610f145780633f3be07214610eaf578063411557d114610e8857806354fd4d5014610e6d5780635d0b520514610b4d57806363497dc714610ad757806376ee56561461095d5780637d1b56e5146108545780638beb60b6146107a45780639162aaa01461075757806391d14854146107025780639df4021d146103ca578063a01fe38e14610390578063a0be06f914610373578063a217fddf14610359578063ac9650d8146101df578063c00460ea146101c3578063cb6ba75d146101895763d547741f1461013a575f80fd5b346101855760403660031901126101855761018360043561015961161d565b90805f525f80516020611f8483398151915260205261017e600160405f200154611a87565b611d02565b005b5f80fd5b34610185575f3660031901126101855760206040517f723d93d9e2749ff76c3a02ca5d48d83735b6f451b126d0ba0683caa16e04c6fa8152f35b34610185575f3660031901126101855760206040516127108152f35b34610185576020806003193601126101855760043567ffffffffffffffff80821161018557366023830112156101855781600401358181116101855760246005913660248260051b8701011161018557916040519161023d83611748565b5f83528683019161024d85611850565b963681900360421901915f5b8781106102c0578a8a6040519082820192808352815180945260408301938160408260051b8601019301915f955b8287106102945785850386f35b9091929382806102b0600193603f198a820301865288516116f4565b9601920196019592919092610287565b8481831b84010135848112156101855783019085820135918a831161018557604401918036038313610185575f806001948f6103298d9161033d968e6040519482869385850198893783019084820190898252519283915e018683820152038084520182611764565b5190305af4610336611e1f565b9030611f00565b610347828d611899565b52610352818c611899565b5001610259565b34610185575f3660031901126101855760206040515f8152f35b34610185575f366003190112610185576020600154604051908152f35b34610185575f3660031901126101855760206040517fa2e85c2f0b3a0317b9c4b4185c12b4e23dd961a7645fcbc9bb8efb8eb70e0d038152f35b346101855760a0366003190112610185577ff0c57e16840df040f15088dc2f81fe391c3923bec73e23a9662efc9c229c6a00805460ff8160401c16159067ffffffffffffffff8116801590816106fa575b60011490816106f0575b1590816106e7575b506106d55767ffffffffffffffff1981166001178355816106b6575b506001600160a01b0361045a6118d9565b6040516302910f8b60e31b815290821660048201526020816024817f000000000000000000000000000000000000000000000000000000000000000086165afa9081156106ab575f9161067c575b501561066a57806104b76118ef565b16156105ef575b6104c6611ebf565b6104ce611ebf565b60015f80516020611fa483398151915255806104e86118d9565b166bffffffffffffffffffffffff60a01b5f5416175f557f108cccaed2dfffe466544dfa3900b2fa5e707bb00ded59de6a950479b923216f602061052a6118d9565b8360405191168152a161053e602435611dd3565b806105476118ef565b166105d9575b80610556611905565b166105c3575b61056461191b565b166105ad575b61057057005b68ff00000000000000001981541690557fc7f505b2f371ae2175ee4913f4499e1f2633a7b5936321eed1cdaeb6115181d2602060405160018152a1005b6105bd6105b861191b565b611bec565b5061056a565b6105d36105ce611905565b611b3f565b5061055c565b6105e96105e46118ef565b611ab5565b5061054d565b60243561064a57806105ff611905565b1661062a578061060d61191b565b16610618575b6104be565b60405163183c854560e21b8152600490fd5b8061063361191b565b166106135760405163183c854560e21b8152600490fd5b80610653611905565b166104be5760405163183c854560e21b8152600490fd5b6040516362df054560e01b8152600490fd5b61069e915060203d6020116106a4575b6106968183611764565b810190611931565b846104a8565b503d61068c565b6040513d5f823e3d90fd5b68ffffffffffffffffff19166801000000000000000117825582610449565b60405163f92ee8a960e01b8152600490fd5b9050158461042d565b303b159150610425565b83915061041b565b346101855760403660031901126101855761071b61161d565b6004355f525f80516020611f8483398151915260205260405f209060018060a01b03165f52602052602060ff60405f2054166040519015158152f35b3461018557604036600319011261018557610770611607565b61077861161d565b9060018060a01b038091165f52600260205260405f2091165f52602052602060405f2054604051908152f35b3461018557602036600319011261018557335f9081527fd8487f5b11ecc8876444ee4ba0be76a299a89e56407bc0c4ef745e8722e35cb06020526040902054600435907fa2e85c2f0b3a0317b9c4b4185c12b4e23dd961a7645fcbc9bb8efb8eb70e0d039060ff1615610836575080600154146108245761018390611dd3565b60405163a741a04560e01b8152600490fd5b6044906040519063e2517d3f60e01b82523360048301526024820152fd5b346101855760403660031901126101855761086d611607565b61087561161d565b61087d611949565b335f9081527fe9574111c3d75c2a60e71ea1e3f5bad97bc853dcd8d24e02cb5480dfbf98e44860205260409020547f723d93d9e2749ff76c3a02ca5d48d83735b6f451b126d0ba0683caa16e04c6fa9060ff161561083657506001600160a01b03165f818152600460205260409020549091811561094b57816109317f6059a38198b1dc42b3791087d1ff0fbd72b3179553c25f678cd246f52ffaaf5993602093865f52600485525f604081205586611d81565b604051908152a260015f80516020611fa483398151915255005b6040516319128aeb60e21b8152600490fd5b346101855761096b36611675565b9190926040845f94810103126101855761098484611633565b6020809501359160018060a01b0380809316911690815f526002875260405f20815f52875260405f20918386165f526003885260405f20905f52875260405f20905f52865260405f2054926109da84835461180a565b80821015610acc5750919392905b5f945f5416905b838610610a00578787604051908152f35b909192939495610a1084836116c7565b5060019165ffffffffffff83830154169060405191610a2e83611748565b5f83528b818b610a526040519687938493630b5cf1a760e21b8552600485016118ad565b03818a5afa9081156106ab578c86945f93610a99575b50906005610a869392610a8c969754925f525260405f2054916119f2565b9061182b565b97019594930191906109ef565b925090935081813d8311610ac5575b610ab28183611764565b81010312610185575184928c6005610a68565b503d610aa8565b9050919392906109e8565b3461018557606036600319011261018557610af0611607565b610af861161d565b6044359160018060a01b038091165f52600260205260405f2091165f5260205260405f20805482101561018557604091610b31916116c7565b5065ffffffffffff600182549201541682519182526020820152f35b3461018557610b5b36611675565b610b6793919293611949565b82019060608383031261018557610b7d83611633565b92602081013592604082013567ffffffffffffffff9283821161018557019181601f8401121561018557823592610bb384611838565b93610bc16040519586611764565b80855260208086019160051b830101928484116101855760208301915b848310610e475750505050505060018060a01b0392819584841615610e3557841693845f52600260205260405f208187165f5260205260405f2096335f52600360205260405f20865f5260205260405f208288165f5260205260405f205492610c48848a5461180a565b80821015610e2d5750935b8415610e1b575180610e00575050610c6a83611850565b935b5f9483985f91845f54165b878410610d3a57505050507fdb6334c433cf0da9329d8fed33a36f8255ac459473a771ba70eb28a2e70e1b69959697335f52600360205260405f20885f5260205260405f20838a165f5260205260405f205584610d2a575b81604051981660208901521660408701526060860152608085015260808452610cf784611718565b6040519081526040602082015280610d14339560408301906116f4565b0390a360015f80516020611fa483398151915255005b610d35858289611d81565b610ccf565b90919297610d8490610d4c8d866116c7565b5065ffffffffffff600182015416906020610d678d88611899565b5160405180968192630b5cf1a760e21b83528633600485016118ad565b0381885afa9384156106ab575f94610dc8575b5091610a86600194610db993869554905f52600560205260405f2054916119f2565b99019b019291909a929a610c77565b9350916020843d602011610df8575b81610de460209383611764565b810103126101855792519291610a86610d97565b3d9150610dd7565b9094908414610c6c5760405163fe8faedf60e01b8152600490fd5b6040516373380d9960e01b8152600490fd5b905093610c53565b604051634e46966960e11b8152600490fd5b823582811161018557602091610e62888480948901016117a2565b815201920191610bde565b34610185575f36600319011261018557602060405160028152f35b34610185575f366003190112610185575f546040516001600160a01b039091168152602090f35b3461018557606036600319011261018557610ec8611607565b610ed061161d565b6001600160a01b0360443581811693908490036101855781165f52600360205260405f2091165f5260205260405f20905f52602052602060405f2054604051908152f35b3461018557604036600319011261018557610f2d61161d565b336001600160a01b03821603610f495761018390600435611d02565b60405163334bd91960e11b8152600490fd5b3461018557604036600319011261018557610183600435610f7a61161d565b90805f525f80516020611f84833981519152602052610f9f600160405f200154611a87565b611c92565b34610185575f366003190112610185576040517f00000000000000000000000000000000000000000000000000000000000000006001600160a01b03168152602090f35b34610185576020366003190112610185576004355f525f80516020611f848339815191526020526020600160405f200154604051908152f35b346101855760803660031901126101855761103a611607565b61104261161d565b67ffffffffffffffff9060643582811161018557611064903690600401611647565b61106c611949565b81016080828203126101855781359365ffffffffffff8086169283870361018557602095604086013584811161018557826110a89188016117a2565b91606087013590858211610185576110c19188016117a2565b9760018060a01b0392836040519b635daf681960e11b8d5216998a60048d01528b8a60249d8e81897f0000000000000000000000000000000000000000000000000000000000000000165afa9081156106ab575f91611502575b5085339116036114f0578542116114d25785421688101561144457600154988a013589116114c057875f5260058a5260405f2054156113b1575b50505016966040516370a0823160e01b90818152306004820152878184818d5afa9081156106ab575f91611384575b506111bd6040516323b872dd60e01b8a82015233858201523060448201526044356064820152606481526111b781611718565b8b611e4e565b604051918252306004830152878284818d5afa80156106ab575f90611355575b6111e7925061180a565b948515611343576111f89086611978565b92611203848761180a565b93895f526004885261121a60405f2091825461182b565b905583611277575b88887f8eea4c08027185e78685e88b8f34f91c3dbde33fa73b2caecc114d595b7620408989610d148a6040519061125882611748565b5f825260405194859485528401526060604084015260608301906116f4565b885f526002875260405f20885f52875260405f209360405191604083019083821090821117611330576040528152868101938585528054906801000000000000000082101561133057906112d0916001820181556116c7565b92909261131f575051815591516001909201805465ffffffffffff191691909216179055610d147f8eea4c08027185e78685e88b8f34f91c3dbde33fa73b2caecc114d595b7620408780611222565b634e487b7160e01b5f525f6004525ffd5b83634e487b7160e01b5f5260416004525ffd5b604051636bbdb6db60e11b8152600490fd5b508782813d831161137d575b61136b8183611764565b81010312610185576111e791516111dd565b503d611361565b90508781813d83116113aa575b61139b8183611764565b8101031261018557518a611184565b503d611391565b6113d6908a865f54169360405180948192630a1e440d60e31b835288600484016117e8565b0381865afa9283156106ab578b925f9461148c575b5060405163810da75d60e01b8152939484928391829161140e91600484016117e8565b03915afa9081156106ab575f9161145f575b508115908115611456575b5061144457855f526005885260405f2055898080611155565b604051636a4d842960e11b8152600490fd5b9050158b61142b565b90508881813d8311611485575b6114768183611764565b8101031261018557518b611420565b503d61146c565b8381949295503d83116114b9575b6114a48183611764565b810103126101855761140e928b9251936113eb565b503d61149a565b6040516318c8358160e21b8152600490fd5b6040516306dfcc6560e41b81526030600482015242818e0152604490fd5b60405163227bf64d60e01b8152600490fd5b90508a81813d8311611531575b6115198183611764565b8101031261018557518581168103610185578d61111b565b503d61150f565b34610185575f366003190112610185576040517f00000000000000000000000000000000000000000000000000000000000000006001600160a01b03168152602090f35b34610185576020366003190112610185576001600160a01b0361159d611607565b165f526004602052602060405f2054604051908152f35b34610185576020366003190112610185576004359063ffffffff60e01b821680920361018557602091637965db0b60e01b81149081156115f6575b5015158152f35b6301ffc9a760e01b149050836115ef565b600435906001600160a01b038216820361018557565b602435906001600160a01b038216820361018557565b35906001600160a01b038216820361018557565b9181601f840112156101855782359167ffffffffffffffff8311610185576020838186019501011161018557565b6060600319820112610185576001600160a01b039160043583811681036101855792602435908116810361018557916044359067ffffffffffffffff8211610185576116c391600401611647565b9091565b80548210156116e0575f5260205f209060011b01905f90565b634e487b7160e01b5f52603260045260245ffd5b805180835260209291819084018484015e5f828201840152601f01601f1916010190565b60a0810190811067ffffffffffffffff82111761173457604052565b634e487b7160e01b5f52604160045260245ffd5b6020810190811067ffffffffffffffff82111761173457604052565b90601f8019910116810190811067ffffffffffffffff82111761173457604052565b67ffffffffffffffff811161173457601f01601f191660200190565b81601f82011215610185578035906117b982611786565b926117c76040519485611764565b8284526020838301011161018557815f926020809301838601378301015290565b60409065ffffffffffff611807949316815281602082015201906116f4565b90565b9190820391821161181757565b634e487b7160e01b5f52601160045260245ffd5b9190820180921161181757565b67ffffffffffffffff81116117345760051b60200190565b9061185a82611838565b6118676040519182611764565b8281528092611878601f1991611838565b01905f5b82811061188857505050565b80606060208093850101520161187c565b80518210156116e05760209160051b010190565b65ffffffffffff611807949360609360018060a01b0316835216602082015281604082015201906116f4565b6004356001600160a01b03811681036101855790565b6044356001600160a01b03811681036101855790565b6064356001600160a01b03811681036101855790565b6084356001600160a01b03811681036101855790565b90816020910312610185575180151581036101855790565b5f80516020611fa483398151915260028154146119665760029055565b604051633ee5aeb560e01b8152600490fd5b90808202905f19818409908280831092039180830392146119e75761271090828211156119d5577fbc01a36e2eb1c432ca57a786c226809d495182a9930be0ded288ce703afb7e91940990828211900360fc1b910360041c170290565b60405163227bc15360e01b8152600490fd5b505061271091500490565b9091828202915f1984820993838086109503948086039514611a6557848311156119d557829109815f038216809204600280826003021880830282030280830282030280830282030280830282030280830282030280920290030293600183805f03040190848311900302920304170290565b505080925015611a73570490565b634e487b7160e01b5f52601260045260245ffd5b805f525f80516020611f8483398151915260205260405f20335f5260205260ff60405f205416156108365750565b6001600160a01b03165f8181527fb7db2dd08fcb62d0c9e08c51941cae53c267786a0b75803fb7960902fc8ef97d60205260409020545f80516020611f848339815191529060ff16611b39575f805260205260405f20815f5260205260405f20600160ff1982541617905533905f5f80516020611f648339815191528180a4600190565b50505f90565b6001600160a01b03165f8181527fe9574111c3d75c2a60e71ea1e3f5bad97bc853dcd8d24e02cb5480dfbf98e44860205260409020547f723d93d9e2749ff76c3a02ca5d48d83735b6f451b126d0ba0683caa16e04c6fa91905f80516020611f848339815191529060ff16611be557825f5260205260405f20815f5260205260405f20600160ff1982541617905533915f80516020611f648339815191525f80a4600190565b5050505f90565b6001600160a01b03165f8181527fd8487f5b11ecc8876444ee4ba0be76a299a89e56407bc0c4ef745e8722e35cb060205260409020547fa2e85c2f0b3a0317b9c4b4185c12b4e23dd961a7645fcbc9bb8efb8eb70e0d0391905f80516020611f848339815191529060ff16611be557825f5260205260405f20815f5260205260405f20600160ff1982541617905533915f80516020611f648339815191525f80a4600190565b90815f525f80516020611f848339815191528060205260405f209160018060a01b031691825f5260205260ff60405f205416155f14611be557825f5260205260405f20815f5260205260405f20600160ff1982541617905533915f80516020611f648339815191525f80a4600190565b90815f525f80516020611f848339815191528060205260405f209160018060a01b031691825f5260205260ff60405f2054165f14611be557825f5260205260405f20815f5260205260405f2060ff19815416905533917ff6391f5c32d9c69d2a47ea670b442974b53935d1edc7fd64eb21e047a839171b5f80a4600190565b60405163a9059cbb60e01b60208201526001600160a01b039092166024830152604480830193909352918152608081019167ffffffffffffffff83118284101761173457611dd192604052611e4e565b565b6127108111611e0d576020817f2f0d0ace1d699b471d7b39522b5c8aae053bce1b422b7a4fe8f09bd6562a4b7492600155604051908152a1565b604051630fb9dd3960e11b8152600490fd5b3d15611e49573d90611e3082611786565b91611e3e6040519384611764565b82523d5f602084013e565b606090565b5f80611e769260018060a01b03169360208151910182865af1611e6f611e1f565b9083611f00565b8051908115159182611ea4575b5050611e8c5750565b60249060405190635274afe760e01b82526004820152fd5b611eb79250602080918301019101611931565b155f80611e83565b60ff7ff0c57e16840df040f15088dc2f81fe391c3923bec73e23a9662efc9c229c6a005460401c1615611eee57565b604051631afcd79f60e31b8152600490fd5b90611f275750805115611f1557805190602001fd5b604051630a12f52160e11b8152600490fd5b81511580611f5a575b611f38575090565b604051639996b31560e01b81526001600160a01b039091166004820152602490fd5b50803b15611f3056fe2f8788117e7eff1d82e926ec794901d17c78024a50270940304540a733656f0d02dd7bc7dec4dceedda775e58dd541e08a116c6c53815c0bd028192f7b6268009b779b17422d0df92223018b32b4d1fa46e071723d6817e2486d003becc55f00a264697066735822122005b3c76ee30c36b50b218559874a174b958d3b35e87b838baa7488acef2936fe64736f6c63430008190033","linkReferences":{}},"methodIdentifiers":{"ADMIN_FEE_BASE()":"c00460ea","ADMIN_FEE_CLAIM_ROLE()":"cb6ba75d","ADMIN_FEE_SET_ROLE()":"a01fe38e","DEFAULT_ADMIN_ROLE()":"a217fddf","NETWORK_MIDDLEWARE_SERVICE()":"2c9d45b3","VAULT()":"411557d1","VAULT_FACTORY()":"103f2907","adminFee()":"a0be06f9","claimAdminFee(address,address)":"7d1b56e5","claimRewards(address,address,bytes)":"5d0b5205","claimable(address,address,bytes)":"76ee5656","claimableAdminFee(address)":"04fe4748","distributeRewards(address,address,uint256,bytes)":"239723ed","getRoleAdmin(bytes32)":"248a9ca3","grantRole(bytes32,address)":"2f2ff15d","hasRole(bytes32,address)":"91d14854","initialize((address,uint256,address,address,address))":"9df4021d","lastUnclaimedReward(address,address,address)":"3f3be072","multicall(bytes[])":"ac9650d8","renounceRole(bytes32,address)":"36568abe","revokeRole(bytes32,address)":"d547741f","rewards(address,address,uint256)":"63497dc7","rewardsLength(address,address)":"9162aaa0","setAdminFee(uint256)":"8beb60b6","supportsInterface(bytes4)":"01ffc9a7","version()":"54fd4d50"},"id":122}