{"abi":[{"type":"constructor","inputs":[{"name":"vaultFactory","type":"address","internalType":"address"},{"name":"networkMiddlewareService","type":"address","internalType":"address"}],"stateMutability":"nonpayable"},{"type":"function","name":"ADMIN_FEE_BASE","inputs":[],"outputs":[{"name":"","type":"uint256","internalType":"uint256"}],"stateMutability":"view"},{"type":"function","name":"ADMIN_FEE_CLAIM_ROLE","inputs":[],"outputs":[{"name":"","type":"bytes32","internalType":"bytes32"}],"stateMutability":"view"},{"type":"function","name":"ADMIN_FEE_SET_ROLE","inputs":[],"outputs":[{"name":"","type":"bytes32","internalType":"bytes32"}],"stateMutability":"view"},{"type":"function","name":"DEFAULT_ADMIN_ROLE","inputs":[],"outputs":[{"name":"","type":"bytes32","internalType":"bytes32"}],"stateMutability":"view"},{"type":"function","name":"NETWORK_MIDDLEWARE_SERVICE","inputs":[],"outputs":[{"name":"","type":"address","internalType":"address"}],"stateMutability":"view"},{"type":"function","name":"VAULT","inputs":[],"outputs":[{"name":"","type":"address","internalType":"address"}],"stateMutability":"view"},{"type":"function","name":"VAULT_FACTORY","inputs":[],"outputs":[{"name":"","type":"address","internalType":"address"}],"stateMutability":"view"},{"type":"function","name":"adminFee","inputs":[],"outputs":[{"name":"","type":"uint256","internalType":"uint256"}],"stateMutability":"view"},{"type":"function","name":"claimAdminFee","inputs":[{"name":"recipient","type":"address","internalType":"address"},{"name":"token","type":"address","internalType":"address"}],"outputs":[],"stateMutability":"nonpayable"},{"type":"function","name":"claimRewards","inputs":[{"name":"recipient","type":"address","internalType":"address"},{"name":"token","type":"address","internalType":"address"},{"name":"data","type":"bytes","internalType":"bytes"}],"outputs":[],"stateMutability":"nonpayable"},{"type":"function","name":"claimable","inputs":[{"name":"token","type":"address","internalType":"address"},{"name":"account","type":"address","internalType":"address"},{"name":"data","type":"bytes","internalType":"bytes"}],"outputs":[{"name":"amount","type":"uint256","internalType":"uint256"}],"stateMutability":"view"},{"type":"function","name":"claimableAdminFee","inputs":[{"name":"token","type":"address","internalType":"address"}],"outputs":[{"name":"amount","type":"uint256","internalType":"uint256"}],"stateMutability":"view"},{"type":"function","name":"distributeRewards","inputs":[{"name":"network","type":"address","internalType":"address"},{"name":"token","type":"address","internalType":"address"},{"name":"amount","type":"uint256","internalType":"uint256"},{"name":"data","type":"bytes","internalType":"bytes"}],"outputs":[],"stateMutability":"nonpayable"},{"type":"function","name":"getRoleAdmin","inputs":[{"name":"role","type":"bytes32","internalType":"bytes32"}],"outputs":[{"name":"","type":"bytes32","internalType":"bytes32"}],"stateMutability":"view"},{"type":"function","name":"grantRole","inputs":[{"name":"role","type":"bytes32","internalType":"bytes32"},{"name":"account","type":"address","internalType":"address"}],"outputs":[],"stateMutability":"nonpayable"},{"type":"function","name":"hasRole","inputs":[{"name":"role","type":"bytes32","internalType":"bytes32"},{"name":"account","type":"address","internalType":"address"}],"outputs":[{"name":"","type":"bool","internalType":"bool"}],"stateMutability":"view"},{"type":"function","name":"initialize","inputs":[{"name":"params","type":"tuple","internalType":"struct IDefaultStakerRewards.InitParams","components":[{"name":"vault","type":"address","internalType":"address"},{"name":"adminFee","type":"uint256","internalType":"uint256"},{"name":"defaultAdminRoleHolder","type":"address","internalType":"address"},{"name":"adminFeeClaimRoleHolder","type":"address","internalType":"address"},{"name":"adminFeeSetRoleHolder","type":"address","internalType":"address"}]}],"outputs":[],"stateMutability":"nonpayable"},{"type":"function","name":"lastUnclaimedReward","inputs":[{"name":"account","type":"address","internalType":"address"},{"name":"token","type":"address","internalType":"address"},{"name":"network","type":"address","internalType":"address"}],"outputs":[{"name":"rewardIndex","type":"uint256","internalType":"uint256"}],"stateMutability":"view"},{"type":"function","name":"multicall","inputs":[{"name":"data","type":"bytes[]","internalType":"bytes[]"}],"outputs":[{"name":"results","type":"bytes[]","internalType":"bytes[]"}],"stateMutability":"nonpayable"},{"type":"function","name":"renounceRole","inputs":[{"name":"role","type":"bytes32","internalType":"bytes32"},{"name":"callerConfirmation","type":"address","internalType":"address"}],"outputs":[],"stateMutability":"nonpayable"},{"type":"function","name":"revokeRole","inputs":[{"name":"role","type":"bytes32","internalType":"bytes32"},{"name":"account","type":"address","internalType":"address"}],"outputs":[],"stateMutability":"nonpayable"},{"type":"function","name":"rewards","inputs":[{"name":"token","type":"address","internalType":"address"},{"name":"network","type":"address","internalType":"address"},{"name":"","type":"uint256","internalType":"uint256"}],"outputs":[{"name":"amount","type":"uint256","internalType":"uint256"},{"name":"timestamp","type":"uint48","internalType":"uint48"}],"stateMutability":"view"},{"type":"function","name":"rewardsLength","inputs":[{"name":"token","type":"address","internalType":"address"},{"name":"network","type":"address","internalType":"address"}],"outputs":[{"name":"","type":"uint256","internalType":"uint256"}],"stateMutability":"view"},{"type":"function","name":"setAdminFee","inputs":[{"name":"adminFee_","type":"uint256","internalType":"uint256"}],"outputs":[],"stateMutability":"nonpayable"},{"type":"function","name":"supportsInterface","inputs":[{"name":"interfaceId","type":"bytes4","internalType":"bytes4"}],"outputs":[{"name":"","type":"bool","internalType":"bool"}],"stateMutability":"view"},{"type":"function","name":"version","inputs":[],"outputs":[{"name":"","type":"uint64","internalType":"uint64"}],"stateMutability":"view"},{"type":"event","name":"ClaimAdminFee","inputs":[{"name":"recipient","type":"address","indexed":true,"internalType":"address"},{"name":"amount","type":"uint256","indexed":false,"internalType":"uint256"}],"anonymous":false},{"type":"event","name":"ClaimRewards","inputs":[{"name":"network","type":"address","indexed":true,"internalType":"address"},{"name":"token","type":"address","indexed":true,"internalType":"address"},{"name":"claimer","type":"address","indexed":true,"internalType":"address"},{"name":"amount","type":"uint256","indexed":false,"internalType":"uint256"},{"name":"data","type":"bytes","indexed":false,"internalType":"bytes"}],"anonymous":false},{"type":"event","name":"DistributeRewards","inputs":[{"name":"network","type":"address","indexed":true,"internalType":"address"},{"name":"token","type":"address","indexed":true,"internalType":"address"},{"name":"amount","type":"uint256","indexed":false,"internalType":"uint256"},{"name":"timestamp","type":"uint48","indexed":false,"internalType":"uint48"},{"name":"data","type":"bytes","indexed":false,"internalType":"bytes"}],"anonymous":false},{"type":"event","name":"Initialized","inputs":[{"name":"version","type":"uint64","indexed":false,"internalType":"uint64"}],"anonymous":false},{"type":"event","name":"RoleAdminChanged","inputs":[{"name":"role","type":"bytes32","indexed":true,"internalType":"bytes32"},{"name":"previousAdminRole","type":"bytes32","indexed":true,"internalType":"bytes32"},{"name":"newAdminRole","type":"bytes32","indexed":true,"internalType":"bytes32"}],"anonymous":false},{"type":"event","name":"RoleGranted","inputs":[{"name":"role","type":"bytes32","indexed":true,"internalType":"bytes32"},{"name":"account","type":"address","indexed":true,"internalType":"address"},{"name":"sender","type":"address","indexed":true,"internalType":"address"}],"anonymous":false},{"type":"event","name":"RoleRevoked","inputs":[{"name":"role","type":"bytes32","indexed":true,"internalType":"bytes32"},{"name":"account","type":"address","indexed":true,"internalType":"address"},{"name":"sender","type":"address","indexed":true,"internalType":"address"}],"anonymous":false},{"type":"event","name":"SetAdminFee","inputs":[{"name":"adminFee","type":"uint256","indexed":false,"internalType":"uint256"}],"anonymous":false},{"type":"error","name":"AccessControlBadConfirmation","inputs":[]},{"type":"error","name":"AccessControlUnauthorizedAccount","inputs":[{"name":"account","type":"address","internalType":"address"},{"name":"neededRole","type":"bytes32","internalType":"bytes32"}]},{"type":"error","name":"AddressEmptyCode","inputs":[{"name":"target","type":"address","internalType":"address"}]},{"type":"error","name":"AddressInsufficientBalance","inputs":[{"name":"account","type":"address","internalType":"address"}]},{"type":"error","name":"AlreadySet","inputs":[]},{"type":"error","name":"FailedInnerCall","inputs":[]},{"type":"error","name":"HighAdminFee","inputs":[]},{"type":"error","name":"InsufficientAdminFee","inputs":[]},{"type":"error","name":"InsufficientReward","inputs":[]},{"type":"error","name":"InvalidAdminFee","inputs":[]},{"type":"error","name":"InvalidHintsLength","inputs":[]},{"type":"error","name":"InvalidInitialization","inputs":[]},{"type":"error","name":"InvalidRecipient","inputs":[]},{"type":"error","name":"InvalidRewardTimestamp","inputs":[]},{"type":"error","name":"MathOverflowedMulDiv","inputs":[]},{"type":"error","name":"MissingRoles","inputs":[]},{"type":"error","name":"NoRewardsToClaim","inputs":[]},{"type":"error","name":"NotInitializing","inputs":[]},{"type":"error","name":"NotNetwork","inputs":[]},{"type":"error","name":"NotNetworkMiddleware","inputs":[]},{"type":"error","name":"NotVault","inputs":[]},{"type":"error","name":"ReentrancyGuardReentrantCall","inputs":[]},{"type":"error","name":"SafeCastOverflowedUintDowncast","inputs":[{"name":"bits","type":"uint8","internalType":"uint8"},{"name":"value","type":"uint256","internalType":"uint256"}]},{"type":"error","name":"SafeERC20FailedOperation","inputs":[{"name":"token","type":"address","internalType":"address"}]}],"bytecode":{"object":"0x60c03461011c57612115906001600160401b0390601f38849003908101601f191682019083821183831017610120578083916040968794855283398101031261011c57610057602061005083610134565b9201610134565b917ff0c57e16840df040f15088dc2f81fe391c3923bec73e23a9662efc9c229c6a009081549060ff82871c1661010b5780808316036100c7575b50505060805260a05251611fcc9081610149823960805181818161047a0152611518015260a051818181610f2201526110570152f35b6001600160401b0319909116811790915583519081527fc7f505b2f371ae2175ee4913f4499e1f2633a7b5936321eed1cdaeb6115181d290602090a15f8080610091565b855163f92ee8a960e01b8152600490fd5b5f80fd5b634e487b7160e01b5f52604160045260245ffd5b51906001600160a01b038216820361011c5756fe6080604081815260049182361015610015575f80fd5b5f3560e01c90816301ffc9a71461157c5750806304fe474814611547578063103f290714611504578063239723ed14610f87578063248a9ca314610f515780632c9d45b314610f0e5780632f2ff15d14610ee657806336568abe14610ea25780633f3be07214610e41578063411557d114610e1a57806354fd4d5014610dff5780635d0b520514610ae657806363497dc714610a7357806376ee5656146108ee5780637d1b56e5146107de5780638beb60b61461073f5780639162aaa0146106f657806391d14854146106a65780639df4021d146103cb578063a01fe38e14610391578063a0be06f914610373578063a217fddf14610359578063ac9650d8146101de578063c00460ea146101c2578063cb6ba75d146101885763d547741f1461013d575f80fd5b34610184578060031936011261018457610182913561017d600161015f6115e4565b93835f525f80516020611f578339815191526020525f200154611a4e565b611ce7565b005b5f80fd5b5034610184575f36600319011261018457602090517f723d93d9e2749ff76c3a02ca5d48d83735b6f451b126d0ba0683caa16e04c6fa8152f35b5034610184575f36600319011261018457602090516127108152f35b50903461018457602090816003193601126101845780359067ffffffffffffffff90818311610184573660238401121561018457820135908082116101845760246005913660248560051b87010111610184578693929351916102408361170f565b5f83528683019461025085611817565b963681900360421901915f5b8781106102bf578b8b8b825191808301818452825180915281858501958260051b8601019301915f955b8287106102935785850386f35b9091929382806102af600193603f198a820301865288516116bb565b9601920196019592919092610286565b8481831b840101358481121561018457830190858201359187831161018457604401918036038313610184575f808f948f6103298f9161033d968f9360019a519482869385850198893783019084820190898252519283915e01868382015203808452018261172b565b5190305af4610336611df2565b9030611ed3565b610347828d611860565b52610352818c611860565b500161025c565b5034610184575f36600319011261018457602090515f8152f35b5034610184575f366003190112610184576020906001549051908152f35b5034610184575f36600319011261018457602090517fa2e85c2f0b3a0317b9c4b4185c12b4e23dd961a7645fcbc9bb8efb8eb70e0d038152f35b5090346101845760a0366003190112610184577ff0c57e16840df040f15088dc2f81fe391c3923bec73e23a9662efc9c229c6a009081549060ff82851c16159167ffffffffffffffff81168015908161069e575b6001149081610694575b15908161068b575b5061067c5767ffffffffffffffff19811660011784558261065d575b506001600160a01b039061045f6118a0565b85516302910f8b60e31b8152908316828201526020816024817f000000000000000000000000000000000000000000000000000000000000000087165afa908115610653575f91610624575b501561061657816104ba6118b6565b16156105bf575b506104ca611e92565b6104d2611e92565b60015f80516020611f7783398151915255806104ec6118a0565b166bffffffffffffffffffffffff60a01b5f5416175f5561050e602435611da6565b806105176118b6565b166105a9575b806105266118cc565b16610593575b6105346118e2565b1661057d575b61054057005b805468ff00000000000000001916905551600181527fc7f505b2f371ae2175ee4913f4499e1f2633a7b5936321eed1cdaeb6115181d290602090a1005b61058d6105886118e2565b611bd1565b5061053a565b6105a361059e6118cc565b611b24565b5061052c565b6105b96105b46118b6565b611a9a565b5061051d565b60243561060d57816105cf6118cc565b166105f857816105dd6118e2565b166105ea57505b5f6104c1565b845163183c854560e21b8152fd5b816106016118e2565b16156105ea57506105e4565b816106016118cc565b84516362df054560e01b8152fd5b610646915060203d60201161064c575b61063e818361172b565b8101906118f8565b5f6104ab565b503d610634565b86513d5f823e3d90fd5b68ffffffffffffffffff1916680100000000000000011783555f61044d565b50835163f92ee8a960e01b8152fd5b9050155f610431565b303b159150610429565b84915061041f565b50346101845780600319360112610184576020916106c26115e4565b90355f525f80516020611f578339815191528352815f209060018060a01b03165f52825260ff815f20541690519015158152f35b50346101845780600319360112610184576020906107126115ce565b61071a6115e4565b9060018060a01b038091165f5260028452825f2091165f528252805f20549051908152f35b5034610184576020366003190112610184578135907fa2e85c2f0b3a0317b9c4b4185c12b4e23dd961a7645fcbc9bb8efb8eb70e0d03805f525f80516020611f57833981519152602052815f20335f5260205260ff825f205416156107c0575081600154146107b15761018282611da6565b5163a741a04560e01b81529050fd5b905163e2517d3f60e01b815233818501526024810191909152604490fd5b5090346101845781600319360112610184576107f86115ce565b916108016115e4565b610809611910565b7f723d93d9e2749ff76c3a02ca5d48d83735b6f451b126d0ba0683caa16e04c6fa805f525f80516020611f57833981519152602052825f20335f5260205260ff835f205416156108d0575060018060a01b031692835f5282602052815f20549283156108c257916108aa847f6059a38198b1dc42b3791087d1ff0fbd72b3179553c25f678cd246f52ffaaf599593602095885f5286525f8481205587611d66565b51908152a260015f80516020611f7783398151915255005b82516319128aeb60e21b8152fd5b825163e2517d3f60e01b815233818601526024810191909152604490fd5b5034610184576108fd3661163c565b939291909483865f968101031261018457610917866115fa565b906020809701359260018060a01b0380809416951694855f5260028952865f20815f528952865f20958483165f5260038a52875f20905f528952865f20905f528852855f2054936109698587546117d1565b80821015610a67575092949391905b5f955f5416945b84871061098f5789898951908152f35b909192939495976109a0858361168e565b506001918965ffffffffffff84840154168d818c898b6109e18751976109c58961170f565b5f895251630b5cf1a760e21b8152978895869485948501611874565b03915afa918215610a5d57908e869493925f93610a2a575b50906005610a169392610a1c969754925f52528d5f2054916119b9565b906117f2565b99019695940192919061097f565b925090935081813d8311610a56575b610a43818361172b565b81010312610184575184928e60056109f9565b503d610a39565b8c513d5f823e3d90fd5b90509294939190610978565b503461018457606036600319011261018457610a8d6115ce565b610a956115e4565b6044359160018060a01b038091165f526002602052835f2091165f52602052815f2090815481101561018457610aca9161168e565b5065ffffffffffff600182549201541682519182526020820152f35b50903461018457610af63661163c565b610b039491939294611910565b83019360608486031261018457610b19846115fa565b9360209384820135908883013567ffffffffffffffff9384821161018457019780601f8a01121561018457883598610b508a6117ff565b94610b5d8c51968761172b565b8a8652888601908960059c60051b84010193808511610184578a8401925b858410610dda5750505050505060018060a01b03809716978397808316958615610dca57811698895f52600289528b5f208b5f5289528b5f2092335f5260038a528c5f208b5f528a528c5f208c5f528a528c5f205495610bdc8786546117d1565b80821015610dc25750965b8715610db25751879080610d945750610c01919250611817565b8c93915b5f9987955f955f5416905b8a8710610cc4579150508d8d7f78fead51026e5910eeca93aa5c43b9061f6bc5e9ffd505473e4f1c181c61c3f18e8e610c9d8f8f8f8f8f335f52600388528b5f208a5f5288528b5f208b5f5288528b5f20558580610cb3575b50508951928684015289830152606082015260608152610c88816116df565b878051948594855284015233978301906116bb565b0390a460015f80516020611f7783398151915255005b610cbd918a611d66565b8a85610c69565b8d879d610cd88a899b9a959697989961168e565b5091600194610cf365ffffffffffff8786015416918b611860565b5182828a610d1489519485938493630b5cf1a760e21b855233908501611874565b03818b5afa9283156106535787958b925f95610d56575b5091610d47969791610a1695949354935f52525f2054916119b9565b9c01950195939291908f610c10565b965092915080935085813d8311610d8d575b610d72818361172b565b810103126101845793518694909290918a9190610d47610d2b565b503d610d68565b03610da257908c9391610c05565b8c5163fe8faedf60e01b81528990fd5b8d516373380d9960e01b81528a90fd5b905096610be7565b8b51634e46966960e11b81528890fd5b8335838111610184578c91610df4848480948a0101611769565b815201930192610b7b565b5034610184575f366003190112610184576020905160028152f35b5034610184575f366003190112610184575f5490516001600160a01b039091168152602090f35b503461018457606036600319011261018457610e5b6115ce565b90610e646115e4565b6044356001600160a01b0381811692918390036101845780602095165f5260038552835f2091165f528352815f20905f528252805f20549051908152f35b5034610184578060031936011261018457610ebb6115e4565b90336001600160a01b03831603610ed757506101829135611ce7565b5163334bd91960e11b81529050fd5b50346101845780600319360112610184576101829135610f09600161015f6115e4565b611c77565b5034610184575f36600319011261018457517f00000000000000000000000000000000000000000000000000000000000000006001600160a01b03168152602090f35b503461018457602036600319011261018457602091355f525f80516020611f5783398151915282526001815f2001549051908152f35b503461018457608036600319011261018457610fa16115ce565b610fa96115e4565b906064359267ffffffffffffffff9384811161018457610fcc903690870161160e565b91610fd5611910565b828201966080838903126101845782359465ffffffffffff8087169283880361018457602097858701358b8111610184578c611012918901611769565b9b6060880135908c82116101845761102b918901611769565b8651635daf681960e11b81526001600160a01b039586168482018190529b60249693909290918c8189817f000000000000000000000000000000000000000000000000000000000000000089165afa9081156114fa575f916114c4575b5084339116036114b45785421161149857854216881015611488578b9c9d9e600154809d8c01351061147857908d91895f52600583528a5f20541561135a575b50505050169a85518c8b8287816370a0823160e01b9485825230898301525afa91821561130f575f9261132b575b5087516323b872dd60e01b8d820152338782015230604482015260443560648201526064815260a08101818110858211176113195789528e92918d9161113c9085611e21565b878a5180958193825230898301525afa801561130f575f906112e0575b61116392506117d1565b9889156112d057611174908a61193f565b9361117f858b6117d1565b948d5f52838c52611194885f209182546117f2565b905584611209575b508b8b7f8eea4c08027185e78685e88b8f34f91c3dbde33fa73b2caecc114d595b7620408c60808d8d808e60608f8f81519889978852870152850152816060850152848401375f828201840152601f01601f19168101030190a360015f80516020611f7783398151915255005b8c5f5260028b52865f208c5f528b52865f209487519288840190848210908211176112be57885282528a820194868652805490680100000000000000008210156112be579061125d9160018201815561168e565b9390936112ae57505051815591516001909201805465ffffffffffff1916919092161790558260608360807f8eea4c08027185e78685e88b8f34f91c3dbde33fa73b2caecc114d595b76204061119c565b5f90634e487b7160e01b8252525ffd5b82604186634e487b7160e01b5f52525ffd5b8651636bbdb6db60e11b81528390fd5b508b82813d8311611308575b6112f6818361172b565b81010312610184576111639151611159565b503d6112ec565b88513d5f823e3d90fd5b87604187634e487b7160e01b5f52525ffd5b9091508b81813d8311611353575b611343818361172b565b810103126101845751905f6110f6565b503d611339565b61137c92865f5416918c5180958192630a1e440d60e31b8352888c84016117af565b0381845afa92831561146e57908f92915f9461143a575b508b5163810da75d60e01b815293948492839182916113b4918c84016117af565b03915afa908115611430575f91611403575b5081159081156113fa575b506113ea57865f5260058c52875f20555f8b81806110c8565b8751636a4d842960e11b81528490fd5b9050155f6113d1565b90508c81813d8311611429575b61141a818361172b565b8101031261018457515f6113c6565b503d611410565b89513d5f823e3d90fd5b8381949295503d8311611467575b611452818361172b565b81010312610184576113b4928f925193611393565b503d611448565b8b513d5f823e3d90fd5b89516318c8358160e21b81528690fd5b8851636a4d842960e11b81528590fd5b88516306dfcc6560e41b81526030818701524281890152604490fd5b885163227bf64d60e01b81528590fd5b90508c81813d83116114f3575b6114db818361172b565b8101031261018457518481168103610184575f611088565b503d6114d1565b8a513d5f823e3d90fd5b5034610184575f36600319011261018457517f00000000000000000000000000000000000000000000000000000000000000006001600160a01b03168152602090f35b5034610184576020366003190112610184576020916001600160a01b0361156c6115ce565b165f528252805f20549051908152f35b833461018457602036600319011261018457359063ffffffff60e01b821680920361018457602091637965db0b60e01b81149081156115bd575b5015158152f35b6301ffc9a760e01b149050836115b6565b600435906001600160a01b038216820361018457565b602435906001600160a01b038216820361018457565b35906001600160a01b038216820361018457565b9181601f840112156101845782359167ffffffffffffffff8311610184576020838186019501011161018457565b6060600319820112610184576001600160a01b039160043583811681036101845792602435908116810361018457916044359067ffffffffffffffff82116101845761168a9160040161160e565b9091565b80548210156116a7575f5260205f209060011b01905f90565b634e487b7160e01b5f52603260045260245ffd5b805180835260209291819084018484015e5f828201840152601f01601f1916010190565b6080810190811067ffffffffffffffff8211176116fb57604052565b634e487b7160e01b5f52604160045260245ffd5b6020810190811067ffffffffffffffff8211176116fb57604052565b90601f8019910116810190811067ffffffffffffffff8211176116fb57604052565b67ffffffffffffffff81116116fb57601f01601f191660200190565b81601f82011215610184578035906117808261174d565b9261178e604051948561172b565b8284526020838301011161018457815f926020809301838601378301015290565b60409065ffffffffffff6117ce949316815281602082015201906116bb565b90565b919082039182116117de57565b634e487b7160e01b5f52601160045260245ffd5b919082018092116117de57565b67ffffffffffffffff81116116fb5760051b60200190565b90611821826117ff565b61182e604051918261172b565b828152809261183f601f19916117ff565b01905f5b82811061184f57505050565b806060602080938501015201611843565b80518210156116a75760209160051b010190565b65ffffffffffff6117ce949360609360018060a01b0316835216602082015281604082015201906116bb565b6004356001600160a01b03811681036101845790565b6044356001600160a01b03811681036101845790565b6064356001600160a01b03811681036101845790565b6084356001600160a01b03811681036101845790565b90816020910312610184575180151581036101845790565b5f80516020611f77833981519152600281541461192d5760029055565b604051633ee5aeb560e01b8152600490fd5b90808202905f19818409908280831092039180830392146119ae57612710908282111561199c577fbc01a36e2eb1c432ca57a786c226809d495182a9930be0ded288ce703afb7e91940990828211900360fc1b910360041c170290565b60405163227bc15360e01b8152600490fd5b505061271091500490565b9091828202915f1984820993838086109503948086039514611a2c578483111561199c57829109815f038216809204600280826003021880830282030280830282030280830282030280830282030280830282030280920290030293600183805f03040190848311900302920304170290565b505080925015611a3a570490565b634e487b7160e01b5f52601260045260245ffd5b805f525f80516020611f5783398151915260205260405f20335f5260205260ff60405f20541615611a7c5750565b6044906040519063e2517d3f60e01b82523360048301526024820152fd5b6001600160a01b03165f8181527fb7db2dd08fcb62d0c9e08c51941cae53c267786a0b75803fb7960902fc8ef97d60205260409020545f80516020611f578339815191529060ff16611b1e575f805260205260405f20815f5260205260405f20600160ff1982541617905533905f5f80516020611f378339815191528180a4600190565b50505f90565b6001600160a01b03165f8181527fe9574111c3d75c2a60e71ea1e3f5bad97bc853dcd8d24e02cb5480dfbf98e44860205260409020547f723d93d9e2749ff76c3a02ca5d48d83735b6f451b126d0ba0683caa16e04c6fa91905f80516020611f578339815191529060ff16611bca57825f5260205260405f20815f5260205260405f20600160ff1982541617905533915f80516020611f378339815191525f80a4600190565b5050505f90565b6001600160a01b03165f8181527fd8487f5b11ecc8876444ee4ba0be76a299a89e56407bc0c4ef745e8722e35cb060205260409020547fa2e85c2f0b3a0317b9c4b4185c12b4e23dd961a7645fcbc9bb8efb8eb70e0d0391905f80516020611f578339815191529060ff16611bca57825f5260205260405f20815f5260205260405f20600160ff1982541617905533915f80516020611f378339815191525f80a4600190565b90815f525f80516020611f578339815191528060205260405f209160018060a01b031691825f5260205260ff60405f205416155f14611bca57825f5260205260405f20815f5260205260405f20600160ff1982541617905533915f80516020611f378339815191525f80a4600190565b90815f525f80516020611f578339815191528060205260405f209160018060a01b031691825f5260205260ff60405f2054165f14611bca57825f5260205260405f20815f5260205260405f2060ff19815416905533917ff6391f5c32d9c69d2a47ea670b442974b53935d1edc7fd64eb21e047a839171b5f80a4600190565b60405163a9059cbb60e01b60208201526001600160a01b039092166024830152604480830193909352918152611da491611d9f826116df565b611e21565b565b6127108111611de0576020817f2f0d0ace1d699b471d7b39522b5c8aae053bce1b422b7a4fe8f09bd6562a4b7492600155604051908152a1565b604051630fb9dd3960e11b8152600490fd5b3d15611e1c573d90611e038261174d565b91611e11604051938461172b565b82523d5f602084013e565b606090565b5f80611e499260018060a01b03169360208151910182865af1611e42611df2565b9083611ed3565b8051908115159182611e77575b5050611e5f5750565b60249060405190635274afe760e01b82526004820152fd5b611e8a92506020809183010191016118f8565b155f80611e56565b60ff7ff0c57e16840df040f15088dc2f81fe391c3923bec73e23a9662efc9c229c6a005460401c1615611ec157565b604051631afcd79f60e31b8152600490fd5b90611efa5750805115611ee857805190602001fd5b604051630a12f52160e11b8152600490fd5b81511580611f2d575b611f0b575090565b604051639996b31560e01b81526001600160a01b039091166004820152602490fd5b50803b15611f0356fe2f8788117e7eff1d82e926ec794901d17c78024a50270940304540a733656f0d02dd7bc7dec4dceedda775e58dd541e08a116c6c53815c0bd028192f7b6268009b779b17422d0df92223018b32b4d1fa46e071723d6817e2486d003becc55f00a264697066735822122041cfcee6cbb738fd1dc0f8a85e31d55fba9095ec87237ce02e773452a037464d64736f6c63430008190033","linkReferences":{}},"methodIdentifiers":{"ADMIN_FEE_BASE()":"c00460ea","ADMIN_FEE_CLAIM_ROLE()":"cb6ba75d","ADMIN_FEE_SET_ROLE()":"a01fe38e","DEFAULT_ADMIN_ROLE()":"a217fddf","NETWORK_MIDDLEWARE_SERVICE()":"2c9d45b3","VAULT()":"411557d1","VAULT_FACTORY()":"103f2907","adminFee()":"a0be06f9","claimAdminFee(address,address)":"7d1b56e5","claimRewards(address,address,bytes)":"5d0b5205","claimable(address,address,bytes)":"76ee5656","claimableAdminFee(address)":"04fe4748","distributeRewards(address,address,uint256,bytes)":"239723ed","getRoleAdmin(bytes32)":"248a9ca3","grantRole(bytes32,address)":"2f2ff15d","hasRole(bytes32,address)":"91d14854","initialize((address,uint256,address,address,address))":"9df4021d","lastUnclaimedReward(address,address,address)":"3f3be072","multicall(bytes[])":"ac9650d8","renounceRole(bytes32,address)":"36568abe","revokeRole(bytes32,address)":"d547741f","rewards(address,address,uint256)":"63497dc7","rewardsLength(address,address)":"9162aaa0","setAdminFee(uint256)":"8beb60b6","supportsInterface(bytes4)":"01ffc9a7","version()":"54fd4d50"},"id":122}