{"abi":[{"type":"function","name":"claimRewards","inputs":[{"name":"recipient","type":"address","internalType":"address"},{"name":"token","type":"address","internalType":"address"},{"name":"data","type":"bytes","internalType":"bytes"}],"outputs":[],"stateMutability":"nonpayable"},{"type":"function","name":"claimable","inputs":[{"name":"token","type":"address","internalType":"address"},{"name":"account","type":"address","internalType":"address"},{"name":"data","type":"bytes","internalType":"bytes"}],"outputs":[{"name":"","type":"uint256","internalType":"uint256"}],"stateMutability":"view"},{"type":"function","name":"distributeRewards","inputs":[{"name":"network","type":"address","internalType":"address"},{"name":"token","type":"address","internalType":"address"},{"name":"amount","type":"uint256","internalType":"uint256"},{"name":"data","type":"bytes","internalType":"bytes"}],"outputs":[],"stateMutability":"nonpayable"},{"type":"function","name":"version","inputs":[],"outputs":[{"name":"","type":"uint64","internalType":"uint64"}],"stateMutability":"view"},{"type":"event","name":"DistributeRewards","inputs":[{"name":"network","type":"address","indexed":true,"internalType":"address"},{"name":"token","type":"address","indexed":true,"internalType":"address"},{"name":"amount","type":"uint256","indexed":false,"internalType":"uint256"},{"name":"data","type":"bytes","indexed":false,"internalType":"bytes"}],"anonymous":false}],"bytecode":{"object":"0x6080806040523460155761023e908161001a8239f35b5f80fdfe6040608081526004361015610012575f80fd5b5f3560e01c8063239723ed1461008f57806354fd4d50146100745780635d0b520514610064576376ee565614610046575f80fd5b3461006057602090610057366101b7565b505050515f8152f35b5f80fd5b3461006057610072366101b7565b005b5034610060575f366003190112610060576020905160018152f35b5034610060576080366003190112610060576001600160a01b0390600435828116919082900361006057602435928316809303610060576064359067ffffffffffffffff821161006057606061010a7ff6101460e0ced9671f166f53bda732cf79afc891a70034b18d2db13a4b6bccb6933690600401610141565b91805192839160443583528060208401526020825192838093860152018484015e5f828201840152601f01601f19168101030190a3005b81601f820112156100605780359067ffffffffffffffff928383116101a35760405193601f8401601f19908116603f01168501908111858210176101a3576040528284526020838301011161006057815f926020809301838601378301015290565b634e487b7160e01b5f52604160045260245ffd5b6060600319820112610060576001600160a01b039160043583811681036100605792602435908116810361006057916044359067ffffffffffffffff82116100605761020591600401610141565b9056fea26469706673582212203f28fb5100f73a692d612166d828dc473bfc50bf6939fb5990ddf758a812e58164736f6c63430008190033","linkReferences":{}},"methodIdentifiers":{"claimRewards(address,address,bytes)":"5d0b5205","claimable(address,address,bytes)":"76ee5656","distributeRewards(address,address,uint256,bytes)":"239723ed","version()":"54fd4d50"},"id":157}