{"abi":[{"type":"constructor","inputs":[{"name":"operatorRewardsImplementation","type":"address","internalType":"address"}],"stateMutability":"nonpayable"},{"type":"function","name":"create","inputs":[],"outputs":[{"name":"","type":"address","internalType":"address"}],"stateMutability":"nonpayable"},{"type":"function","name":"entity","inputs":[{"name":"index","type":"uint256","internalType":"uint256"}],"outputs":[{"name":"","type":"address","internalType":"address"}],"stateMutability":"view"},{"type":"function","name":"isEntity","inputs":[{"name":"entity_","type":"address","internalType":"address"}],"outputs":[{"name":"","type":"bool","internalType":"bool"}],"stateMutability":"view"},{"type":"function","name":"totalEntities","inputs":[],"outputs":[{"name":"","type":"uint256","internalType":"uint256"}],"stateMutability":"view"},{"type":"event","name":"AddEntity","inputs":[{"name":"entity","type":"address","indexed":true,"internalType":"address"}],"anonymous":false},{"type":"error","name":"ERC1167FailedCreateClone","inputs":[]},{"type":"error","name":"EntityNotExist","inputs":[]}],"bytecode":{"object":"0x60a034606557601f61037238819003918201601f19168301916001600160401b03831184841017606957808492602094604052833981010312606557516001600160a01b03811681036065576080526040516102f4908161007e82396080518160760152f35b5f80fd5b634e487b7160e01b5f52604160045260245ffdfe6080604081815260049182361015610015575f80fd5b5f3560e01c90816314887c58146101e9575080635cd8b15e146101cc578063b42ba2a2146101615763efc81a8c1461004b575f80fd5b3461015d575f36600319011261015d575f5481516020810191825233818401528281526060810192917f00000000000000000000000000000000000000000000000000000000000000009167ffffffffffffffff85118186101761014a57906e5af43d82803e903d91602b57fd5bf39185855251902091763d602d80600a3d3981f3363d3d373d3d3d363d7300000062ffffff8260881c16175f5260781b1760205260018060a01b0390603760095ff51691821561013c576020838361011082610223565b505190807fb919910dcefbf753bfd926ab3b1d3f85d877190c3d01ba1bd585047b99b99f0b5f80a28152f35b6330be1a3d60e21b81528390fd5b604186634e487b7160e01b5f525260245ffd5b5f80fd5b503461015d57602036600319011261015d5781355f548110156101b9575f80527f290decd9548b62a8d60345a988386fc84ba6bc95484008f6362f93160ef3e563015490516001600160a01b03909116815260209150f35b603283634e487b7160e01b5f525260245ffd5b503461015d575f36600319011261015d576020905f549051908152f35b9050823461015d57602036600319011261015d57356001600160a01b038116929083900361015d576020925f52600183525f205415158152f35b805f52600160205260405f2054155f146102b9575f54680100000000000000008110156102a55760018101805f558110156102915781907f290decd9548b62a8d60345a988386fc84ba6bc95484008f6362f93160ef3e56301555f54905f52600160205260405f2055600190565b634e487b7160e01b5f52603260045260245ffd5b634e487b7160e01b5f52604160045260245ffd5b505f9056fea264697066735822122018667467a7fdc6491effbf6d24de2139e28fb03a1727438bb31765865fe8b3d564736f6c63430008190033","linkReferences":{}},"methodIdentifiers":{"create()":"efc81a8c","entity(uint256)":"b42ba2a2","isEntity(address)":"14887c58","totalEntities()":"5cd8b15e"},"id":91}